:04000000020029329F
:01000B0032C2
:0100130032BA
:01001B0032B2
:030023000201399E
:0300820002002653
:030026000200D302
:20008500758921758DF3758BF3D28E759850D2AFD2AC22AF82C2AC8F9910990280FBD2AC0B
:2000A50022AD82AE83AFF08D828E838FF0120155601BC2AC8D828E838FF0120155F5991085
:2000C500990280FBD2AC0DBD00DD0E80DA221200857401B50911C2AC7509008508991099C0
:2000E5000280FBD2AC80EA75826812009875820A120098750A68750B65750C6C750D6C75C6
:200105000E6F750F2C75102075117775126F75137275146C75156475160A75170090000A7D
:2001250075F0401200A675823012009875820A120098809DC0E0C0D07509017455B59904FA
:10014500C2B28002D2B2859908C298D0D0D0E0322E
:06005800E478FFF6D8FD7C
:200036007900E94400601B7A00900175780175A000E493F2A308B8000205A0D9F4DAF275FA
:02005600A0FF09
:20005E007800E84400600A790175A000E4F309D8FC7800E84400600C7900900001E4F0A3A0
:04007E00D8FCD9FAD7
:0D002900758117120171E582600302002647
:1C01550020F71430F6148883A88220F507E6A88375830022E280F7E49322E022B9
:040171007582002271
:00000001FF
