:0400000002002132A7
:01000B0032C2
:0100130032BA
:03001B000200F5EB
:03007A0002001E63
:03001E000200914C
:20007D00AE894306108E89758DFF758BFFD2ABD2AFD28E2212007DC374649509E4950A50A1
:20009D001EE4F509F50A04B50808050BE4B50B02050CE5087009150B74FFB50B02150C7464
:2000BD00E8B50B087403B50C03750800E50B450C7003750801C374E8950D7403950E500559
:2000DD00E4F50DF50EC3E50D950BE50E950C5004D2A180A3C2A1809FC0E0C0D0758DFF751F
:1700FD008BFF050DE4B50D02050E0509E4B50902050AD0D0D0E03252
:06005000E478FFF6D8FD84
:20002E007900E94400601B7A00900118780175A000E493F2A308B8000205A0D9F4DAF2755F
:02004E00A0FF11
:200056007800E84400600A790175A000E4F309D8FC7800E84400600C7900900001E4F0A3A8
:04007600D8FCD9FADF
:0D00210075810E120114E582600302001EBD
:0401140075820022CE
:00000001FF
