:03000000020006F5
:03005F0002000399
:0300030002008771
:20006200AE82AF838E048F051EBEFF011FEC4D70F322AF82EF600D900064C007120062D0B1
:20008200071F80F02275A0007580707582641200747580B07582641200747580D0758264A5
:0E00A2001200747580E075826412007480DABA
:06003500E478FFF6D8FD9F
:200013007900E94400601B7A009000B4780175A000E493F2A308B8000205A0D9F4DAF275DF
:02003300A0FF2C
:20003B007800E84400600A790175A000E4F309D8FC7800E84400600C7900900001E4F0A3C3
:04005B00D8FCD9FAFA
:0D0006007581071200B0E58260030200035F
:0400B0007582002233
:00000001FF
