:0400000002001132B7
:03000B000205519A
:20006A0075080075093F750A06750B5B750C4F750D66750E6D750F7D75100775117F75121B
:20008A006F75137775147C75153975165E751779751871751900751A00751B00751C007581
:2000AA001D00751E00751F00752000E4F525F526F527F528F529F52AF52BF52C753164750E
:2000CA00326975337375347475356175366E753763753865753920F53A753B6D753C6D7551
:0700EA003D0AF53E02000E85
:03000E0002047E6B
:2000F100AE82AF838E048F051EBEFF011FEC4D70F322AE82AF838E048F051EBEFF011FEC3F
:200111004D600A7D64ED14FCFD70FA80E9227F008F057E00753F048E408D828E83C007C089
:2001310006C005120827AB82AC83D005D006EB4C24FF92A4A2A4E4337C0025E0FBEC33FC17
:20015100EB2BFBEC33FCEDC39BF582EE9CF583753F02754000C006C005120827AB82AC830B
:20017100D005D006D007EB4C24FF92A3A2A4E4337C0025E0FBEC33FCEB2BFBEC33FCEDC38D
:200191009BFDEE9CFEA2A3E4337C0025E0FBEC33FCEDC39BFDEE9C4D24FF92A2EF2419F9A0
:2001B10087809000C8C0071200F1D0070FBF0800500302012122AF82C2AC8F9910990280CD
:2001D100FBD2AC22AD82AE83AFF08D828E838FF01207F8601BC2AC8D828E838FF01207F82B
:2001F100F59910990280FBD2AC0DBD00DD0E80DA22D2919000021200F1C29122758921AE51
:20021100874306808E87759850758DFF758BFF758C00758A00D28ED2AFD2AC22AD82AE832A
:20023100AFF01207F8FBA31207F8FC7A0074022DFDE43EFE8D828E838FF01207F8F8A312BB
:2002510007F8F9C3E89BE99C5004880389040ABA030040D98B828C8322AD82AE83AFF0122F
:2002710007F8FBA31207F8FC7A0074022DFDE43EFE8D828E838FF01207F8F8A31207F8F934
:20029100C3EB98EC995004880389040ABA030040D98B828C832290002575F04012022D85D8
:2002B100822D85832E90002575F04012026A85822F858330E5272525FEE5283526FFE52939
:2002D1002EFEE52A3FFFE52B2EFEE52C3FFFEEC3952DFEEF952EFFEEC3952FFEEF95308E32
:2002F10023C313C52313C523F524C3E52394A0E524940FB3E433FF7401B508047401800158
:20031100E4FE4F6012750800751940751A40751B40751C400203A7753FE875400385238244
:20033100852483120555E5822409F987074307808F1912011F753FE875400385238285242E
:2003510083120682753F64754000120555E5822409F987078F1A12011F753F6475400085EE
:200371002382852483120682753F0A754000120555E5822409F987078F1B12011F753F0A6D
:20039100754000852382852483120682E582FE2409F987078F1C753FE875400385238285E0
:2003B1002483120555AE8274302EFE753FE8754003852382852483C006120682753F647582
:2003D1004000120555AD8274302DFD753F64754000852382852483C005120682753F0A75AE
:2003F1004000120555AC8274302CFC753F0A754000852382852483C004120682AB8274304E
:200411002BFB758DFF758BFFC28E900001C0031200F1D003D004D005D006D28E9000317516
:20043100F040C006C005C004C0031201D5D003D004D005D0068E82C005C004C0031201C7F9
:20045100D003D004D0058D82C004C0031201C7D003D0048C82C0031201C7D0038B8212015A
:20047100C790003B75F0401201D5C28E227F00C00712020DD007BF040040027F00C007123F
:200491000202D0073092FDD28C2092FDC28CAE8C7D00AB8A7C00EB2DF521EC3EF5228D8C66
:2004B1008D8D852182852283C0071206CFAB82AC83ADF0FEE4C0E0C0E07468C0E07442C004
:2004D100E08B828C838DF0EE120735AB82AC83ADF0FEE58124FCF581C003C004C005C00651
:2004F10090000075F020744112057EAB82AC83ADF0FEE58124FCF5818B828C838DF0EE1200
:2005110006DBAD82AE83D0078D238E24EF2F2425F8A60508A6060FC0071202A7D0077E0F9D
:200531008E051EED600DC007C00612011FD006D00780ED90000AC007120103D007020487EB
:0405510075080132F6
:200555007A10E4FBFCE58225E0F582E58333F583EB33FBEC33FCEB953FF5F0EC954040064C
:09057500FCABF0438201DADD2247
:20057E00120621BC0003020707EF60FA30D502B2D1E583B4FF0302071DE582B4FF03020718
:20059E001D258340072482400B020707248314500302071DF582EA8DF0A4A8F0EA8EF0A4D6
:2005BE0028F8E435F0F9EB8DF0A428E935F0F9E433CA8FF0A429F9EA35F0FAEBF88EF0A48C
:2005DE0029F9EA35F0FAE433FBEC8DF0A429F9EA35F0FAE43BFBE88FF0A42AFAEB35F0FB34
:2005FE00E433CCFD8EF0A42AFAEB35F0FBE43CFCED8FF0A42BFBEC35F0FC20E70312064FDC
:03061E000206E6EB
:20062100AA82AB83A2F73392D1F5826002D2F7ACF0E58124F9F8E6FD08E6FE0886F008E63C
:0E064100A2F73392D5F5836002D2F7AFF02214
:06004000E478FFF6D8FD94
:20064F007804EC7011E58224F8500AF582E4C9CACBFCD8EF22EC7820058220E713D58201AA
:13066F0022C3E933F9EA33FAEB33FBEC33FCD8EA158222B8
:20001E007900E94400601B7A009008DF780175A000E493F2A308B8000205A0D9F4DAF275A1
:02003E00A0FF21
:20068200E53F454060467A01E53F25E0F53FE540334012F540E582953FE583954040030A8D
:2006A20080E6C3E54013F540E53F13F53FC3E582953FF5F0E58395404005F58385F082C3A0
:0D06C200E54013F540E53F13F53FDAE12276
:200046007800E84400600A790175A000E4F309D8FC7800E84400600C7900900001E4F0A3B8
:04006600D8FCD9FAEF
:0C06CF00E4AC83AB82FAF9748E02081DC3
:0B06DB007F8E120865F58385F08222F7
:2006E600B98003EA13B34010EA2401FAE43BFBE43CFC50047C800582BC000EBB000BBA0058
:2007060008E4F5F0F583F58222A2D1E582138CF092F78B838A8222E4F583F58275F080F417
:0F072600A2D11322E4F583F58275F0C0747F220F
:2007350012062130D502B2D1BF0009BC000302072A02071DBC0003020707E583B4FF0BE527
:2007550082B4FF0302072A020707E582B4FF0302071DC395835007247F400B0207072480F2
:2007750014500302071DF582C3ED9AEE9BEF9C40111582C3EA33F9EB33FAEC33FBE433FCFC
:200795008005E4CCCBCAF9C08275F019C3E99DEA9EEB9FEC9400D5F002802D400EE99DF9A5
:2007B500EA9EFAEB9FFBEC9400FCC3B3E833F8E58233F582E58333F583C3E933F9EA33FA05
:2007D500EB33FBEC33FC80C4B3E4F938FAE43582FBE43583FCD082500405827C8012064F0C
:0307F5000206FEFB
:0D00110075814012085FE582600302000E59
:1C07F80020F71430F6148883A88220F507E6A88375830022E280F7E49322E02210
:13081400FCABF0AA83A982749EC2D1F58212064F0206E671
:20082700C2D5E58330E70DD2D5E4C39582F582E49583F583E54030E70DB2D5E4C3953FF5FE
:180847003FE49540F54012055530D50BE4C39582F582E49583F5832225
:04085F00758200227C
:200863007F9E1208CD30D103020707C3EF9582500974FFF5F0F583F58222790012088A892C
:07088300828A838BF0EC2256
:20088A006040F82582500274FFF582E824F8501ECCCBCAF9E4CC24F85014CBCAF9E4CB2476
:2008AA00F8500BCAF9E4CA24F8500379002224086010F8C3EC13FCEB13FBEA13FAE913F929
:0308CA00D8F12240
:1208CD00AA82AB83A2F73392D1F5826002D2F7ACF02230
:00000001FF
