:0400000002001132B7
:03000B0002044E9E
:20006A0075080075093F750A06750B5B750C4F750D66750E6D750F7D75100775117F75121B
:20008A006F75137775147C75153975165E751779751871751900751A00751B00751C007581
:2000AA001D00751E00751F00752000E4F525F526F527F528F529F52AF52BF52C752D647512
:2000CA002E69752F7375307475316175326E753363753465753520F53675376D75386D757D
:0700EA00390AF53A02000E8D
:03000E000203A941
:2000F100AE82AF838E048F051EBEFF011FEC4D70F322AE82AF838E048F051EBEFF011FEC3F
:200111004D600A7D64ED14FCFD70FA80E9227F008F057E00753B048E3C8D828E83C007C091
:2001310006C005120724AB82AC83D005D006EB4C24FF92A4A2A4E4337C0025E0FBEC33FC1B
:20015100EB2BFBEC33FCEDC39BF582EE9CF583753B02753C00C006C005120724AB82AC8317
:20017100D005D006D007EB4C24FF92A3A2A4E4337C0025E0FBEC33FCEB2BFBEC33FCEDC38D
:200191009BFDEE9CFEA2A3E4337C0025E0FBEC33FCEDC39BFDEE9C4D24FF92A2EF2419F9A0
:2001B10087809000C8C0071200F1D0070FBF0800500302012122AF82C2AC8F9910990280CD
:2001D100FBD2AC22AD82AE83AFF08D828E838FF01206F5601BC2AC8D828E838FF01206F533
:2001F100F59910990280FBD2AC0DBD00DD0E80DA22D2919000021200F1C29122758921758A
:200211009850758DF3758BF3758C00758A00D28ED2AFD2AC22C3E52394A0E524940FB3E43A
:2002310033FF7401B5080474018001E4FE4F6012750800751940751A40751B40751C4002EF
:2002510002D2753BE8753C03852382852483120452E5822409F987074307808F1912011FF0
:20027100753BE8753C0385238285248312057F753B64753C00120452E5822409F987078F5E
:200291001A12011F753B64753C0085238285248312057F753B0A753C00120452E5822409E9
:2002B100F987078F1B12011F753B0A753C0085238285248312057FE582FE2409F987078FCB
:2002D1001C753BE8753C03852382852483120452AE8274302EFE753BE8753C0385238285EC
:2002F1002483C00612057F753B64753C00120452AD8274302DFD753B64753C00852382854C
:200311002483C00512057F753B0A753C00120452AC8274302CFC753B0A753C0085238285E3
:200331002483C00412057FAB8274302BFB758DF3758BF3C28E900001C0031200F1D003D082
:2003510004D005D006D28E90002D75F040C006C005C004C0031201D5D003D004D005D006CF
:200371008E82C005C004C0031201C7D003D004D0058D82C004C0031201C7D003D0048C8295
:20039100C0031201C7D0038B821201C790003775F0401201D5C28E2212020D120202309236
:2003B100FDD28C2092FDC28CAF8C7E00AC8A7D00EC2EF521ED3FF5228E8C8E8D8521828513
:2003D10022831205CCAC82AD83AEF0FFE4C0E0C0E07468C0E07442C0E08C828D838EF0EF08
:2003F100120632AC82AD83AEF0FFE58124FCF581C004C005C006C00790000075F0207441CB
:2004110012047BAC82AD83AEF0FFE58124FCF5818C828D838EF0EF1205D885822385832473
:200431001202267F0F8F061FEE6009C00712011FD00780F190000A1201030203AC750801B8
:010451003278
:200452007A10E4FBFCE58225E0F582E58333F583EB33FBEC33FCEB953BF5F0EC953C400658
:09047200FCABF0438201DADD224B
:20047B0012051EBC0003020604EF60FA30D502B2D1E583B4FF0302061AE582B4FF03020629
:20049B001A258340072482400B020604248314500302061AF582EA8DF0A4A8F0EA8EF0A4E5
:2004BB0028F8E435F0F9EB8DF0A428E935F0F9E433CA8FF0A429F9EA35F0FAEBF88EF0A490
:2004DB0029F9EA35F0FAE433FBEC8DF0A429F9EA35F0FAE43BFBE88FF0A42AFAEB35F0FB38
:2004FB00E433CCFD8EF0A42AFAEB35F0FBE43CFCED8FF0A42BFBEC35F0FC20E70312054CE4
:03051B000205E3F3
:20051E00AA82AB83A2F73392D1F5826002D2F7ACF0E58124F9F8E6FD08E6FE0886F008E640
:0E053E00A2F73392D5F5836002D2F7AFF02218
:06004000E478FFF6D8FD94
:20054C007804EC7011E58224F8500AF582E4C9CACBFCD8EF22EC7820058220E713D58201AE
:13056C0022C3E933F9EA33FAEB33FBEC33FCD8EA158222BC
:20001E007900E94400601B7A009007DC780175A000E493F2A308B8000205A0D9F4DAF275A5
:02003E00A0FF21
:20057F00E53B453C60467A01E53B25E0F53BE53C334012F53CE582953BE583953C40030AB1
:20059F0080E6C3E53C13F53CE53B13F53BC3E582953BF5F0E583953C4005F58385F082C3BC
:0D05BF00E53C13F53CE53B13F53BDAE1228A
:200046007800E84400600A790175A000E4F309D8FC7800E84400600C7900900001E4F0A3B8
:04006600D8FCD9FAEF
:0C05CC00E4AC83AB82FAF9748E02071ACB
:0B05D8007F8E120762F58385F08222FF
:2005E300B98003EA13B34010EA2401FAE43BFBE43CFC50047C800582BC000EBB000BBA005C
:2006030008E4F5F0F583F58222A2D1E582138CF092F78B838A8222E4F583F58275F080F41B
:0F062300A2D11322E4F583F58275F0C0747F2213
:2006320012051E30D502B2D1BF0009BC000302062702061ABC0003020604E583B4FF0BE53B
:2006520082B4FF03020627020604E582B4FF0302061AC395835007247F400B020604248006
:2006720014500302061AF582C3ED9AEE9BEF9C40111582C3EA33F9EB33FAEC33FBE433FC04
:200692008005E4CCCBCAF9C08275F019C3E99DEA9EEB9FEC9400D5F002802D400EE99DF9A9
:2006B200EA9EFAEB9FFBEC9400FCC3B3E833F8E58233F582E58333F583C3E933F9EA33FA09
:2006D200EB33FBEC33FC80C4B3E4F938FAE43582FBE43583FCD082500405827C8012054C14
:0306F2000205FB03
:0D00110075813C12075CE582600302000E61
:1C06F50020F71430F6148883A88220F507E6A88375830022E280F7E49322E02214
:13071100FCABF0AA83A982749EC2D1F58212054C0205E37D
:20072400C2D5E58330E70DD2D5E4C39582F582E49583F583E53C30E70DB2D5E4C3953BF50A
:180744003BE4953CF53C12045230D50BE4C39582F582E49583F5832239
:04075C007582002280
:200760007F9E1207CA30D103020604C3EF9582500974FFF5F0F583F582227900120787893C
:07078000828A838BF0EC225A
:200787006040F82582500274FFF582E824F8501ECCCBCAF9E4CC24F85014CBCAF9E4CB247A
:2007A700F8500BCAF9E4CA24F8500379002224086010F8C3EC13FCEB13FBEA13FAE913F92D
:0307C700D8F12244
:1207CA00AA82AB83A2F73392D1F5826002D2F7ACF02234
:00000001FF
