:03000000020006F5
:10005F0075083F750906750A5B750B4F750C66754C
:10006F000D6D750E7D750F0775107F75116F7512FC
:10007F007775137C75143975155E7516797517714B
:10008F00751800751900751A00751B00751C007521
:10009F001D00751E00751F0075200075210075224B
:0700AF0000752301020003AC
:030003000203EF06
:1000B600AE82AF838E048F051EBEFF011FEC4D700E
:1000C600F322AE82AF838E048F051EBEFF011FECA6
:1000D6004D600A7D64ED14FCFD70FA80E9227F0014
:1000E6008F057E007524048E258D828E83C007C001
:1000F60006C0051206FDAB82AC83D005D006EB4CDC
:1001060024FF92A4A2A4E4337C0025E0FBEC33FC9C
:10011600EB2BFBEC33FCEDC39BF582EE9CF5837574
:100126002402752500C006C0051206FDAB82AC830D
:10013600D005D006D007EB4C24FF92A3A2A4E4334B
:100146007C0025E0FBEC33FCEB2BFBEC33FCEDC336
:100156009BFDEE9CFEA2A3E4337C0025E0FBEC3382
:10016600FCEDC39BFDEE9C4D24FF92A2EF2418F9F3
:1001760087809000C8C0071200B6D0070FBF0700DF
:1001860050030200E622D2B39000081200B6C2B3B2
:100196009000321200B6D2B39000071200B6A2B396
:1001A60092B29000321200B6A2B2E433F582227FF8
:1001B60000D2B3900001C0071200B6D0077E00C27D
:1001C600B3EFC313FFD2B330B3098F047D004304EA
:1001D600808C0790001EC007C0061200B6D006D05D
:1001E60007D2B30EBE080040D68F8222AF827E00B1
:1001F600C2B3EF540124FF92B3900005C007C006B6
:100206001200B6D006D007D2B3EFC313FF0EBE0856
:100216000040DD2212018CE5826004752300227500
:1002260082CC1201F21200E47582441201F212002D
:10023600E412018C7582CC1201F27582BE1201F2B3
:100246001200E41201B5E582F5211201B5E582F549
:10025600221200E475230122AF227E00AC217D002C
:10026600EC4206ED4207C007C0061200E4D006D0F5
:1002760007EF30E718751840EE24FFFCEF34FF4C0B
:10028600B40100E433FDFE3395E0FF8003751800EA
:100296008E828F831205F0AC82AD83AEF0FFC0076D
:1002A600C006C005C0041200E4D004D005D006D0B4
:1002B60007C004C005C006C00790000075F0C874EA
:1002C6004012041DAC82AD83AEF0FFE58124FCF53F
:1002D60081E4C0E0C0E0C0E0743FC0E08C828D8362
:1002E6008EF0EF120597AC82AD83AEF0FFE5812468
:1002F600FCF5818C828D838EF0EF1205FDAE82AF08
:1003060083C007C0061200E4D006D0077524107516
:1003160025278E828F83C007C0061206FDAC82D0C9
:1003260006D007EC2408F987058D19C007C0061208
:1003360000E4D006D0077524107525278E828F839A
:10034600C007C00612069A7524E87525031206FD35
:10035600AC82D006D007EC2408F987058D1AC007B1
:10036600C0061200E4D006D0077524E87525038E72
:10037600828F83C007C00612069A7524647525000D
:100386001206FDAC82D006D007EC2408F987054397
:1003960005808D1BC007C0061200E4D006D0077585
:1003A60024647525008E828F83C007C00612069AC4
:1003B60075240A7525001206FDAC82D006D007EC1E
:1003C6002408F987058D1CC007C0061200E4D00674
:1003D600D00775240A7525008E828F8312069AE54A
:1003E600822408F987078F1D2212018C90C35012B0
:1003F60000B69061A81200B612021A12025E7F0AB7
:100406008F061FEE6009C0071200E4D00780F19046
:10041600000A1200C880E11204C0BC0003020652A2
:10042600EF60FA30D502B2D1E583B4FF0302066865
:10043600E582B4FF03020668258340072482400B49
:100446000206522483145003020668F582EA8DF0F0
:10045600A4A8F0EA8EF0A428F8E435F0F9EB8DF0C4
:10046600A428E935F0F9E433CA8FF0A429F9EA356E
:10047600F0FAEBF88EF0A429F9EA35F0FAE433FB4A
:10048600EC8DF0A429F9EA35F0FAE43BFBE88FF0AD
:10049600A42AFAEB35F0FBE433CCFD8EF0A42AFA5D
:1004A600EB35F0FBE43CFCED8FF0A42BFBEC35F0D8
:1004B600FC20E7031204EE020631AA82AB83A2F700
:1004C6003392D1F5826002D2F7ACF0E58124F9F8D7
:1004D600E6FD08E6FE0886F008E6A2F73392D5F5B3
:0804E600836002D2F7AFF0229F
:06003500E478FFF6D8FD9F
:1004EE007804EC7011E58224F8500AF582E4C9CA4A
:1004FE00CBFCD8EF22EC7820058220E713D58201C1
:10050E0022C3E933F9EA33FAEB33FBEC33FCD8EAD6
:03051E0015822221
:100013007900E94400601B7A009007E9780175A034
:1000230000E493F2A308B8000205A0D9F4DAF2754C
:02003300A0FF2C
:10052100E524452560467A01E52425E0F524E52505
:10053100334012F525E5829524E583952540030A8C
:1005410080E6C3E52513F525E52413F524C3E582EB
:100551009524F5F0E58395254005F58385F082C363
:0D056100E52513F525E52413F524DAE12244
:10003B007800E84400600A790175A000E4F309D860
:10004B00FC7800E84400600C7900900001E4F0A318
:04005B00D8FCD9FAFA
:10056E007A10E4FBFCE58225E0F582E58333F58322
:10057E00EB33FBEC33FCEB9524F5F0EC95254006C4
:10058E00FCABF0438201DADD221204C07900E58370
:10059E00B58202800D5003120680E583C395821248
:1005AE000735E5D0C465D020E117EA2DFAEB3EFB06
:1005BE00EC3FFC50097401120735EC4480FC020636
:1005CE0031C3EA9DFAEB9EFBEC9FFC500FC3E499FE
:1005DE00F9E49AFAE49BFBE49CFCB2D11204EE021D
:1005EE000631AC83AB827A007900748E0206D91282
:1005FE000778700AE582458345F0700122E430D118
:10060E0012F4700BE5F0F47006E58330E7012290EA
:10061E00800022700AE5F07006E58320E701229043
:10062E007FFF22B98003EA13B34010EA2401FAE4F3
:10063E003BFBE43CFC50047C800582BC000EBB00FE
:10064E000BBA0008E4F5F0F583F58222A2D1E5821B
:10065E00138CF092F78B838A8222E4F583F58275F0
:10066E00F080F4A2D11322E4F583F58275F0C07404
:10067E007F22E582C583F582A2D133A2D592D11312
:0C068E0092D5ECCFFCEBCEFBEACDFA22BB
:0D0006007581251207D3E582600302000317
:10069A00C2D5E58330E70DD2D5E4C39582F582E46D
:1006AA009583F583E52530E70BE4C39524F524E427
:1006BA009525F52512052130D50BE4C39582F582DF
:1006CA00E49583F58322FCABF0AA83A982749EF594
:1006DA0082C2D1EC30E716D2D1E9F42401F9EAF466
:1006EA003400FAEBF43400FBECF43400FC1204EEB0
:1006FA00020631C2D5E58330E70DD2D5E4C395822F
:10070A00F582E49583F583E52530E70DB2D5E4C398
:10071A009524F524E49525F52512056E30D50BE4CC
:10072A00C39582F582E49583F583226040F8258299
:10073A00500274FFF582E824F8501ECCCBCAF9E4C3
:10074A00CC24F85014CBCAF9E4CB24F8500BCAF9DC
:10075A00E4CA24F8500379002224086010F8C3EC94
:10076A0013FCEB13FBEA13FAE913F9D8F122120787
:10077A00D7C3749E95824039790012073530D12645
:10078A00E9F42401F582EAF43400F583EBF4340049
:10079A00F5F0ECF43400700AE582458345F0700107
:1007AA0022E430E70F22EC20E71489828A838BF057
:1007BA002230D10AE4F582F583F5F074802274FFC1
:1007CA00F582F583F5F0747F2275820022AA82AB46
:0F07DA0083A2F73392D1F5826002D2F7ACF022FE
:00000001FF
