:03000000020006F5
:10005F0075083F750906750A5B750B4F750C66754C
:10006F000D6D750E7D750F0775107F75116F7512FC
:10007F007775137C75143975155E7516797517714B
:10008F00751800751900751A00751B00751C007521
:10009F001D00751E00751F0075200075210075224B
:0700AF0000752301020003AC
:030003000203F203
:1000B600AE82AF838E048F051EBEFF011FEC4D700E
:1000C600F322AE82AF838E048F051EBEFF011FECA6
:1000D6004D600A7D64ED14FCFD70FA80E9227F0014
:1000E6008F057E007524048E258D828E83C007C001
:1000F60006C005120700AB82AC83D005D006EB4CD8
:1001060024FF92A4A2A4E4337C0025E0FBEC33FC9C
:10011600EB2BFBEC33FCEDC39BF582EE9CF5837574
:100126002402752500C006C005120700AB82AC8309
:10013600D005D006D007EB4C24FF92A3A2A4E4334B
:100146007C0025E0FBEC33FCEB2BFBEC33FCEDC336
:100156009BFDEE9CFEA2A3E4337C0025E0FBEC3382
:10016600FCEDC39BFDEE9C4D24FF92A2EF2418F9F3
:1001760087809000C8C0071200B6D0077580000FB0
:10018600BF070050030200E622D2B3900008120017
:10019600B6C2B39000321200B6D2B3900007120076
:1001A600B6A2B392B29000321200B6A2B2E433F510
:1001B60082227F00D2B3900001C0071200B6D0079A
:1001C6007E00EFC313FFC2B3D2B330B3098F047DF1
:1001D600004304808C07900004C007C0061200B6D6
:1001E600D006D007D2B30EBE080040D68F8222AF0B
:1001F600827E00C2B3EF540124FF92B3900004C084
:1002060007C0061200B6D006D007D2B3EFC313FF5D
:100216000EBE080040DD2212018FE58260047523C0
:1002260000227582CC1201F51200E4758244120197
:10023600F51200E412018F7582CC1201F57582BEAB
:100246001201F51200E41201B8E582F5211201B897
:10025600E582F5221200E475230122AF227E00AC6E
:10026600217D00EC4206ED4207C007C0061200E4FD
:10027600D006D007EF30E718751840EE24FFFCEFE4
:1002860034FF4CB40100E433FDFE3395E0FF8003F8
:100296007518008E828F831205F3AC82AD83AEF0A3
:1002A600FFC007C006C005C0041200E4D004D00594
:1002B600D006D007C004C005C006C0079000007570
:1002C600F0C87440120420AC82AD83AEF0FFE58125
:1002D60024FCF581E4C0E0C0E0C0E0743FC0E08CDF
:1002E600828D838EF0EF12059AAC82AD83AEF0FF5D
:1002F600E58124FCF5818C828D838EF0EF12060059
:10030600AE82AF83C007C0061200E4D006D00775E0
:1003160024107525278E828F83C007C0061207001A
:10032600AC82D006D007EC2408F987058D19C007E2
:10033600C0061200E4D006D0077524107525278E56
:10034600828F83C007C00612069D7524E8752503B3
:10035600120700AC82D006D007EC2408F987058D79
:100366001AC007C0061200E4D006D0077524E87547
:1003760025038E828F83C007C00612069D752464EE
:10038600752500120700AC82D006D007EC2408F9C8
:1003960087054305808D1BC007C0061200E4D00602
:1003A600D0077524647525008E828F83C007C0062A
:1003B60012069D75240A752500120700AC82D00628
:1003C600D007EC2408F987058D1CC007C00612006B
:1003D600E4D006D00775240A7525008E828F831215
:1003E600069DE5822408F987078F1D2212018F904A
:1003F600C3501200B69061A81200B612021D120276
:10040600617F0A8F061FEE6009C0071200E4D0075D
:1004160080F190000A1200C880E11204C3BC0003F8
:10042600020655EF60FA30D502B2D1E583B4FF0378
:1004360002066BE582B4FF0302066B2583400724A0
:1004460082400B020655248314500302066BF58284
:10045600EA8DF0A4A8F0EA8EF0A428F8E435F0F9C5
:10046600EB8DF0A428E935F0F9E433CA8FF0A4291E
:10047600F9EA35F0FAEBF88EF0A429F9EA35F0FA44
:10048600E433FBEC8DF0A429F9EA35F0FAE43BFB02
:10049600E88FF0A42AFAEB35F0FBE433CCFD8EF0BE
:1004A600A42AFAEB35F0FBE43CFCED8FF0A42BFB21
:1004B600EC35F0FC20E7031204F1020634AA82AB05
:1004C60083A2F73392D1F5826002D2F7ACF0E581D0
:1004D60024F9F8E6FD08E6FE0886F008E6A2F733FA
:0B04E60092D5F5836002D2F7AFF02240
:06003500E478FFF6D8FD9F
:1004F1007804EC7011E58224F8500AF582E4C9CA47
:10050100CBFCD8EF22EC7820058220E713D58201BD
:1005110022C3E933F9EA33FAEB33FBEC33FCD8EAD3
:030521001582221E
:100013007900E94400601B7A009007EC780175A031
:1000230000E493F2A308B8000205A0D9F4DAF2754C
:02003300A0FF2C
:10052400E524452560467A01E52425E0F524E52502
:10053400334012F525E5829524E583952540030A89
:1005440080E6C3E52513F525E52413F524C3E582E8
:100554009524F5F0E58395254005F58385F082C360
:0D056400E52513F525E52413F524DAE12241
:10003B007800E84400600A790175A000E4F309D860
:10004B00FC7800E84400600C7900900001E4F0A318
:04005B00D8FCD9FAFA
:100571007A10E4FBFCE58225E0F582E58333F5831F
:10058100EB33FBEC33FCEB9524F5F0EC95254006C1
:10059100FCABF0438201DADD221204C37900E5836A
:1005A100B58202800D5003120683E583C395821242
:1005B1000738E5D0C465D020E117EA2DFAEB3EFB00
:1005C100EC3FFC50097401120738EC4480FC020630
:1005D10034C3EA9DFAEB9EFBEC9FFC500FC3E499F8
:1005E100F9E49AFAE49BFBE49CFCB2D11204F10217
:1005F1000634AC83AB827A007900748E0206DC1279
:10060100077B700AE582458345F0700122E430D111
:1006110012F4700BE5F0F47006E58330E7012290E7
:10062100800022700AE5F07006E58320E701229040
:100631007FFF22B98003EA13B34010EA2401FAE4F0
:100641003BFBE43CFC50047C800582BC000EBB00FB
:100651000BBA0008E4F5F0F583F58222A2D1E58218
:10066100138CF092F78B838A8222E4F583F58275ED
:10067100F080F4A2D11322E4F583F58275F0C07401
:100681007F22E582C583F582A2D133A2D592D1130F
:0C06910092D5ECCFFCEBCEFBEACDFA22B8
:0D0006007581251207D6E582600302000314
:10069D00C2D5E58330E70DD2D5E4C39582F582E46A
:1006AD009583F583E52530E70BE4C39524F524E424
:1006BD009525F52512052430D50BE4C39582F582D9
:1006CD00E49583F58322FCABF0AA83A982749EF591
:1006DD0082C2D1EC30E716D2D1E9F42401F9EAF463
:1006ED003400FAEBF43400FBECF43400FC1204F1AA
:1006FD00020634C2D5E58330E70DD2D5E4C3958229
:10070D00F582E49583F583E52530E70DB2D5E4C395
:10071D009524F524E49525F52512057130D50BE4C6
:10072D00C39582F582E49583F583226040F8258296
:10073D00500274FFF582E824F8501ECCCBCAF9E4C0
:10074D00CC24F85014CBCAF9E4CB24F8500BCAF9D9
:10075D00E4CA24F8500379002224086010F8C3EC91
:10076D0013FCEB13FBEA13FAE913F9D8F122120784
:10077D00DAC3749E95824039790012073830D1263C
:10078D00E9F42401F582EAF43400F583EBF4340046
:10079D00F5F0ECF43400700AE582458345F0700104
:1007AD0022E430E70F22EC20E71489828A838BF054
:1007BD002230D10AE4F582F583F5F074802274FFBE
:1007CD00F582F583F5F0747F2275820022AA82AB43
:0F07DD0083A2F73392D1F5826002D2F7ACF022FB
:00000001FF
