:04000000020029329F
:01000B0032C2
:0100130032BA
:01001B0032B2
:030023000200B127
:0300820002002653
:030026000200983D
:20008500758920758DF3758BF3D28E759850D2AFD2AC221200857401B509FBC2AC750900C6
:2000A50085089910990280FBD2AC80EAC0E0C0D07509017455B59904C2B28002D2B28599A5
:0800C50008C298D0D0D0E0324F
:06005800E478FFF6D8FD7C
:200036007900E94400601B7A009000D1780175A000E493F2A308B8000205A0D9F4DAF2759F
:02005600A0FF09
:20005E007800E84400600A790175A000E4F309D8FC7800E84400600C7900900001E4F0A3A0
:04007E00D8FCD9FAD7
:0D0029007581091200CDE5826003020026FA
:0400CD007582002216
:00000001FF
