:03000000020006F5
:03005F0002000399
:0300030002008375
:10006200AE82AF83EE4F60187CE87D038C028D0375
:100072001CBCFF011DEA4B70F31EBEFF011F80E492
:1000820022C2A090000A120062D2A090000A1200BE
:030092006280EE9B
:06003500E478FFF6D8FD9F
:100013007900E94400601B7A00900099780175A08B
:1000230000E493F2A308B8000205A0D9F4DAF2754C
:02003300A0FF2C
:10003B007800E84400600A790175A000E4F309D860
:10004B00FC7800E84400600C7900900001E4F0A318
:04005B00D8FCD9FAFA
:0D000600758107120095E58260030200037A
:04009500758200224E
:00000001FF
