:060000000200090201BB31
:1000620075213F75220675235B75244F75256675CC
:10007200266D75277D75280775297F752A6F752B63
:1000820077752C7C752D39752E5E752F79753071CB
:10009200753100753200753376753400753500752B
:0B00A2003600753700753800020006BC
:0300060002018C68
:1000AD00AE82AF838E048F051EBEFF011FEC4D7017
:1000BD00F322AE82AF838E048F051EBEFF011FECAF
:1000CD004D600A7D64ED14FCFD70FA80E9227F001D
:1000DD008F057E007508048E098D828E83C007C042
:1000ED0006C00512030CAB82AC83D005D006EB4CD9
:1000FD0024FF92A4A2A4E4337C0025E0FBEC33FCA6
:10010D00EB2BFBEC33FCEDC39BF582EE9CF583757D
:10011D000802750900C006C00512030CAB82AC8342
:10012D00D005D006D007EB4C24FF92A3A2A4E43354
:10013D007C0025E0FBEC33FCEB2BFBEC33FCEDC33F
:10014D009BFDEE9CFEA2A3E4337C0025E0FBEC338B
:10015D00FCEDC39BFDEE9C4D24FF92A2EF2431F9E3
:10016D0087809000C8C0071200ADD0070FBF0200F6
:10017D0050030200DD22D288D2A8D2AFD2B2221211
:10018D000183AE3B7F007508108F098E828F83121D
:10019D00030CAE82EE2421F987078F31AE3B530657
:1001AD000FEE2421F987078F321200DB80D4C02097
:1001BD00C0E0C0F0C082C083C007C006C005C00447
:1001CD00C003C002C001C000C0D075D000753F0093
:1001DD009002BC1200AD30B2030202C67EE87F036E
:1001ED0020B219EE4F6015900001C007C006120035
:1001FD00ADD006D0071EBEFF011F80E420B2030262
:10020D0002B87EF47F0130B219EE4F6015900001F7
:10021D00C007C0061200ADD006D0071EBEFF011FDD
:10022D0080E47F007E007C3C7D0020B221EC4D609F
:10023D001D90000AC007C006C005C0041200ADD055
:10024D0004D005D006D0071CBCFF011D80DC7CF45A
:10025D007D0130B229EC4D602590000AC007C00623
:10026D00C005C0041200ADD004D005D006D0071CC7
:10027D00BCFF011D053FE53F24E150D6803BEF2437
:10028D0039F9E7C313FDF774F8253F500987057C4D
:10029D0000430580A705753F000EBE080050030200
:1002AD0002330FBF04005003020231E53CB40100DC
:1002BD00E433FFE53BFEB50700D0D0D000D001D030
:1002CD0002D003D004D005D006D007D083D082D081
:0602DD00F0D0E0D0203259
:06003800E478FFF6D8FD9C
:100016007900E94400601B7A00900348780175A0D6
:1000260000E493F2A308B8000205A0D9F4DAF27549
:02003600A0FF29
:10003E007800E84400600A790175A000E4F309D85D
:10004E00FC7800E84400600C7900900001E4F0A315
:04005E00D8FCD9FAF7
:1002E3007A10E4FBFCE58225E0F582E58333F583B0
:1002F300EB33FBEC33FCEB9508F5F0EC950940068A
:09030300FCABF0438201DADD22BB
:0D00090075813F120344E58260030200068A
:10030C00C2D5E58330E70DD2D5E4C39582F582E4FE
:10031C009583F583E50930E70DB2D5E4C39508F56F
:10032C0008E49509F5091202E330D50BE4C3958274
:0C033C00F582E49583F58322758200228F
:00000001FF
