:03000000020006F5
:10005F0075083F750906750A5B750B4F750C66754C
:10006F000D6D750E7D750F0775107F75116F7512FC
:10007F007775137C75143975155E7516797517714B
:10008F00751800751900751A00751B00751C007521
:0E009F001D00751E00751F0075200002000375
:0300030002026393
:1000AD00AE82AF838E048F051EBEFF011FEC4D7017
:1000BD00F322AE82AF838E048F051EBEFF011FECAF
:1000CD004D600A7D64ED14FCFD70FA80E9227F0419
:1000DD008F057E007522048E238D828E83C007C00E
:1000ED0006C00512050BAB82AC83D005D006EB4CD8
:1000FD0024FF92A4A2A4E4337C0025E0FBEC33FCA6
:10010D00EB2BFBEC33FCEDC39BF582EE9CF583757D
:10011D002202752300C006C00512050BAB82AC830D
:10012D00D005D006D007EB4C24FF92A3A2A4E43354
:10013D007C0025E0FBEC33FCEB2BFBEC33FCEDC33F
:10014D009BFDEE9CFEA2A3E4337C0025E0FBEC338B
:10015D00FCEDC39BFDEE9C4D24FF92A2EF2418F9FC
:10016D008780900064C0071200ADD0077580000F26
:10017D00BF080050030200DD222090159003E81205
:10018D0000AD20900C3090FD852021758201120468
:10019D00032091159003E81200AD20910C3091FDD4
:1001AD0075820112043385822020921A9003E81281
:1001BD0000AD20920EE520FF04F520C394FF40030F
:1001CD007520003092FD20930F9003E81200AD20B2
:1001DD0093037520003093FD22AE207F007522E839
:1001ED007523038E828F8312050BAE82EE2408F9E0
:1001FD0087078F1CAE207F007522E87523038E8242
:10020D008F831204D575226475230012050BAE82FF
:10021D00EE2408F987078F1DAE207F007522648FAD
:10022D00238E828F831204D575220A752300120541
:10023D000BAE82EE2408F987078F1EAE207F007566
:10024D00220A8F238E828F831204D5AE82EE24086C
:10025D00F987078F1F221201861201E61200DB803B
:10026D00F522D2B012026E12026E12026E12026EE0
:10027D0012026E12026E12026E12026ED2B11202D2
:10028D006E12026E12026E12026E12026E12026E69
:10029D0012026E12026E12026E12026EC2B01202C3
:1002AD006E12026E12026E12026E12026E12026E49
:1002BD0012026E12026E12026E12026EC2B11202A2
:1002CD006E12026E12026E12026E02026EC2B01237
:1002DD00026ED2B112026E12026E12026E12026E16
:1002ED0012026ED2B012026E12026E12026E120263
:1002FD006E02026EAF827E008F047D008EF005F0DF
:10030D008006EC2CFCED33FDD5F0F7EC30E704D294
:10031D00B08002C2B0C007C00612026E12026ED2C9
:10032D00B112026E12026E12026E12026E12026E85
:10033D0012026E12026E12026EC2B112026E120221
:10034D006ED006D0070EBE080040ADD2B012026EC0
:10035D0012026E12026ED2B112026E12026E1202F1
:10036D006E12026E12026E30B01AC2B112026E120D
:10037D00026E12026E12026ED2B012026E12026E76
:10038D0075820022C2B112026E12026E12026E123C
:10039D00026ED2B012026E12026E758201227F00C1
:1003AD00D2B07E00C007C00612026EC2B112026E3C
:1003BD0012026E12026E12026E12026ED2B1120291
:1003CD006E12026ED006D0078F05ED2DFDA2B0E4A2
:1003DD00334DFFC007C00612026E12026ED006D05A
:1003ED00070EBE080040BDC2B1C00712026E120258
:1003FD006ED0078F8222AF82C00712026F7582A066
:10040D00120301AE82D007EE24FF92A78F82120352
:10041D0001E58224FF92A6852182120301E5822443
:10042D00FF92A50202DAAF82C00712026F7582A099
:10043D00120301D0078F8212030112026F7582A180
:10044D001203011203ABAF82C0071202DAD0078F7D
:02045D008222F9
:06003500E478FFF6D8FD9F
:100013007900E94400601B7A00900547780175A0D8
:1000230000E493F2A308B8000205A0D9F4DAF2754C
:02003300A0FF2C
:10045F00E522452360467A01E52225E0F522E523D2
:10046F00334012F523E5829522E583952340030A55
:10047F0080E6C3E52313F523E52213F522C3E582B6
:10048F009522F5F0E58395234005F58385F082C32A
:0D049F00E52313F523E52213F522DAE1220F
:10003B007800E84400600A790175A000E4F309D860
:10004B00FC7800E84400600C7900900001E4F0A318
:04005B00D8FCD9FAFA
:1004AC007A10E4FBFCE58225E0F582E58333F583E5
:1004BC00EB33FBEC33FCEB9522F5F0EC952340068B
:0904CC00FCABF0438201DADD22F1
:0D000600758123120543E5826003020003AB
:1004D500C2D5E58330E70DD2D5E4C39582F582E434
:1004E5009583F583E52330E70BE4C39522F522E4F4
:1004F5009523F52312045F30D50BE4C39582F5826D
:10050500E49583F58322C2D5E58330E70DD2D5E4A2
:10051500C39582F582E49583F583E52330E70DB233
:10052500D5E4C39522F522E49523F5231204AC30D6
:10053500D50BE4C39582F582E49583F58322758214
:02054500002292
:00000001FF
