:03000000020006F5
:20005F0075083F750906750A5B750B4F750C66750D6D750E7D750F0775107F75116F7512B7
:20007F007775137C75143975155E751679751771751800751900751A09751B00751C0075F2
:08009F001D09751E00751F000C
:0300E60002000312
:0300030002023BBB
:2000E900AE82AF838E048F051EBEFF011FEC4D70F322AE82AF838E048F051EBEFF011FEC47
:200109004D600A7D64ED14FCFD70FA80E9227F008F057E007536048E378D828E83C007C0A3
:2001290006C005120375AB82AC83D005D006EB4C24FF92A4A2A4E4337C0025E0FBEC33FCD6
:20014900EB2BFBEC33FCEDC39BF582EE9CF583753602753700C006C005120375AB82AC83DC
:20016900D005D006D007EB4C24FF92A3A2A4E4337C0025E0FBEC33FCEB2BFBEC33FCEDC395
:200189009BFDEE9CFEA2A3E4337C0025E0FBEC33FCEDC39BFDEE9C4D24FF92A2EF2418F9A9
:2001A90087809000C8C0071200E9D0077580000FBF080050030201192212032BAE307F0045
:2001C9007536108F378E828F83120375AE82EE2408F987078F18AE3053060FEE2408F98791
:2001E900078F19AE2F7F007536108F378E828F83120375AE82EE2408F987078F1BAE2F5313
:20020900060FEE2408F987078F1CAE2E7F007536108F378E828F83120375AE82EE2408F9A9
:2002290087078F1EAE2E53060FEE2408F987078F1F2212029490000A1200FB1201C212018E
:030249001780F823
:2000A70075208175218375228575238775248975258B75268D752780752882752984752A64
:1F00C70086752B88752C8A752D8C752E55752F15753012753107753205753306753416E5
:20024C0022AF827E00EF540124FF92B4D2B6C2B6C007C00612024CD006D007EFC313FF0EA8
:20026C00BE080040E022AF82C2B7C2B6C00712024CD007D2B78F8212024D85358212024DB2
:20028C00C2B712024CD2B62275350075828012027275350075828E120272753580758280D2
:2002AC001202727F00EF2427F98782EF242EF98735C007120272D0070FBF070040E7753531
:2002CC008075828E0202727F007E00EFC313FD30B4098D034303808B078004747F5DFFD25E
:2002EC00B6C2B60EBE080040E28F8222AF82D2B7C00712024CD0074307018F8212024D1214
:20030C0002D3AF82C2B7C00712024CD2B612024CC2B412024CD2B412024CD0078F82227FFE
:20032C0000EF242EF9EF2420F88682C007C0011202F8E582D001D007F70FBF070040E22291
:06003500E478FFF6D8FD9F
:200013007900E94400601B7A009003B1780175A000E493F2A308B8000205A0D9F4DAF275DF
:02003300A0FF2C
:20003B007800E84400600A790175A000E4F309D8FC7800E84400600C7900900001E4F0A3C3
:04005B00D8FCD9FAFA
:20034C007A10E4FBFCE58225E0F582E58333F583EB33FBEC33FCEB9536F5F0EC9537400669
:09036C00FCABF0438201DADD2252
:0D0006007581371203ADE58260030200032F
:20037500C2D5E58330E70DD2D5E4C39582F582E49583F583E53730E70DB2D5E4C39536F5C7
:1803950036E49537F53712034C30D50BE4C39582F582E49583F5832202
:0403AD007582002233
:00000001FF
