:03000000020006F5
:03005F0002000399
:0300030002007484
:20006200AE82AF838E048F051EBEFF011FEC4D70F3227513007514007582FF120342AC82B1
:20008200AD83AEF0FF900000E4F5F0C007C006C005C004120417D004D005D006D0078C8291
:2000A2008D838EF0EFC007C006C005C004120417D004D005D006D0078C828D838EF0EF128B
:2000C200041790C35012006290C3501200627513FF751400758200120342AC82AD83AEF07B
:2000E200FF900000E4F5F0C007C006C005C004120417D004D005D006D0078C828D838EF071
:20010200EFC007C006C005C004120417D004D005D006D0078C828D838EF0EF12041790C34A
:200122005012006290C3501200627513007514FF758200120342AC82AD83AEF0FF900000F9
:20014200E4F5F0C007C006C005C004120417D004D005D006D0078C828D838EF0EFC007C029
:2001620006C005C004120417D004D005D006D0078C828D838EF0EF12041790C3501200629C
:2001820090C3501200627513FF7514007582FF120342AC82AD83AEF0FF7513007514017567
:2001A20082FFC007C006C005C004120342A882A983AAF0FB900000E4F5F0C003C002C001C5
:2001C200C000120417D000D001D002D003D004D005D006D0078C828D838EF0EFC003C00284
:2001E200C001C000120417D000D001D002D003888289838AF0EB12041790C35012006290BA
:20020200C3501200627511F87512FF7CF87DFF85120F79F87AFF8D108A82890C8C0D851164
:200222000E851013850F14C005C004C002C00112034285820885830985F00AF50B850D13B7
:20024200850E14850C82120342A882AB83AEF0FFD001D002D004D005900000E4F5F0C0072A
:20026200C006C005C004C003C002C001C000120417850882850983850AF0E50B120417D06E
:2002820000D001D002D003D004D005D006D00788828B838EF0EFC005C004C002C0011204E9
:2002A2001790000112030ED001D002D004D005E924CEFEEA34FFFFEE24FFF9EF34FFFAC347
:2002C200E99407EA9400400302021AEC24E2FEED34FFFFEE24FFFCEF34FFFDC3EC9407ED47
:2002E20094004003020214E51124F6FEE51234FFFFEE24FFF511EF34FFF512C3E511940742
:0C030200E5129400400302020D0200749A
:20030E00AE82AF838E048F051EBEFF011FEC4D60137C647D008C028D031CBCFF011DEA4BFB
:20032E0060E280F122C2877F00C286D2860FBF200040F622858215AD157E00EDF4FDEEF410
:20034E005305C0E4FE3395E08D04EE5403A2E0CC13CC13A2E0CC13CC13CCFB7D007E004392
:20036E0003C0A9137A00E9F4F9EAF45301C0E4F83395E08902E8C454F0CAC4CA6ACA54F0DF
:20038E00CA6AFFE4F9F8ED4201EE4200EC4202EB4207AD147E00EDF4FDEEF45305C0E4FE8A
:2003AE003395E08D04EECC25E0CC33CC25E0CC33FBE4FDFEE94205E84206EA4204EF4203CA
:2003CE00A815790089078802E4F8F9ED4200EE4201EC4202EB4207AB137C007D008D068C50
:2003EE00058B04E44200EC4201ED4202EE4207AB14E4FCFDFEE84203E94204EA4205EF4246
:20040E00068B828C838DF0EE22AC82AD83AEF0FF7B00EF30E704D2878002C287EC2CFCED7A
:20042E0033FDEE33FEEF33FFC286D2860BBB200040E022AC82AD83AEF0FF7B008FA090033E
:20044E00E8C007C006C005C004C00312030E9003E812030ED003D004D005D006D0078E074E
:20046E008D068C057C009003E8C007C006C005C004C00312030E9003E812030ED003D00412
:0D048E00D005D006D0070BBB040040B02203
:06003500E478FFF6D8FD9F
:200013007900E94400601B7A0090049F780175A000E493F2A308B8000205A0D9F4DAF275F0
:02003300A0FF2C
:20003B007800E84400600A790175A000E4F309D8FC7800E84400600C7900900001E4F0A3C3
:04005B00D8FCD9FAFA
:0D00060075811512049BE582600302000362
:04049B007582002244
:00000001FF
