:03000000020006F5
:03005F0002000399
:0300030002008771
:20006200AE82AF838E048F051EBEFF011FEC4D70F3227F64EF600D9003E8C007120062D078
:20008200071F80F02275803375903375A03375B0331200747580CC7590CC75A0CC75B0CCBC
:0500A20012007480E073
:06003500E478FFF6D8FD9F
:200013007900E94400601B7A009000AB780175A000E493F2A308B8000205A0D9F4DAF275E8
:02003300A0FF2C
:20003B007800E84400600A790175A000E4F309D8FC7800E84400600C7900900001E4F0A3C3
:04005B00D8FCD9FAFA
:0D0006007581071200A7E582600302000368
:0400A700758200223C
:00000001FF
